:020000040800F2
:1000000000500020E10B0008310C0008310C000802
:10001000310C0008310C0008310C00080000000011
:10002000000000000000000000000000310C00088B
:10003000310C000800000000310C0008310C0008F1
:10004000310C0008310C0008310C0008310C00089C
:10005000310C0008310C0008310C0008310C00088C
:10006000310C0008310C0008310C0008310C00087C
:10007000310C0008310C0008310C0008310C00086C
:10008000310C0008310C0008310C0008310C00085C
:10009000310C0008310C0008310C0008310C00084C
:1000A000310C0008310C0008310C0008310C00083C
:1000B000310C0008310C0008310C0008310C00082C
:1000C000310C0008310C0008310C0008310C00081C
:1000D000310C0008310C0008310C0008310C00080C
:1000E000310C0008310C000800000000310C000841
:1000F000310C0008310C0008310C0008310C0008EC
:10010000310C0008310C0008310C0008310C0008DB
:10011000310C0008310C0008310C0008310C0008CB
:10012000310C0008310C0008310C0008310C0008BB
:1001300010B5054C237833B9044B13B10448AFF321
:1001400000800123237010BD00000020000000008B
:10015000F014000808B5034B1BB103490348AFF383
:10016000008008BD0000000004000020F01400081A
:1001700081F0004102E000BF83F0004330B54FEA58
:1001800041044FEA430594EA050F08BF90EA020FC5
:100190001FBF54EA000C55EA020C7FEA645C7FEA58
:1001A000655C00F0E2804FEA5454D4EB5555B8BF7B
:1001B0006D420CDD2C4480EA020281EA030382EAEC
:1001C000000083EA010180EA020281EA0303362D7E
:1001D00088BF30BD11F0004F4FEA01314FF4801C51
:1001E0004CEA113102D0404261EB410113F0004F63
:1001F0004FEA03334CEA133302D0524263EB43031A
:1002000094EA050F00F0A780A4F10104D5F1200EB7
:100210000DDB02FA0EFC22FA05F2801841F1000112
:1002200003FA0EF2801843FA05F359410EE0A5F1E6
:1002300020050EF1200E012A03FA0EFC28BF4CF017
:10024000020C43FA05F3C01851EBE37101F00045CD
:1002500007D54FF0000EDCF1000C7EEB00006EEBDA
:100260000101B1F5801F1BD3B1F5001F0CD3490864
:100270005FEA30004FEA3C0C04F101044FEA4452BB
:1002800012F5800F80F09A80BCF1004F08BF5FEA42
:10029000500C50F1000041EB045141EA050130BD22
:1002A0005FEA4C0C404141EB0101013C28BFB1F534
:1002B000801FE9D291F0000F04BF01460020B1FA7F
:1002C00081F308BF2033A3F10B03B3F120020CDA52
:1002D0000C3208DD02F1140CC2F10C0201FA0CF030
:1002E00021FA02F10CE002F11402D8BFC2F1200C95
:1002F00001FA02F120FA0CFCDCBF41EA0C0190404B
:10030000E41AA2BF01EB0451294330BD6FEA040493
:100310001F3C1CDA0C340EDC04F11404C4F120027E
:1003200020FA04F001FA02F340EA030021FA04F390
:1003300045EA030130BDC4F10C04C4F1200220FAE7
:1003400002F001FA04F340EA0300294630BD21FA25
:1003500004F0294630BD94F0000F83F4801306BFEB
:1003600081F480110134013D4EE77FEA645C18BFDF
:100370007FEA655C29D094EA050F08BF90EA020F76
:1003800005D054EA000C04BF1946104630BD91EA6E
:10039000030F1EBF0021002030BD5FEA545C05D171
:1003A0004000494128BF41F0004130BD14F58004B0
:1003B0003CBF01F5801130BD01F0004545F0FE4124
:1003C00041F470014FF0000030BD7FEA645C1ABF59
:1003D000194610467FEA655C1CBF0B46024650EA90
:1003E000013406BF52EA033591EA030F41F40021BC
:1003F00030BD00BF90F0000F04BF0021704730B542
:100400004FF4806404F132044FF000054FF0000116
:1004100050E700BF90F0000F04BF0021704730B5D7
:100420004FF4806404F1320410F0004548BF4042AC
:100430004FF000013EE700BF42004FEAE2014FEA01
:1004400031014FEA02701FBF12F07F4393F07F4FDC
:1004500081F06051704732F07F4208BF704793F0DF
:100460007F4F04BF41F40021704730B54FF46074F2
:1004700001F0004521F000411CE700BF50EA0102F5
:1004800008BF704730B54FF000050AE050EA01029E
:1004900008BF704730B511F0004502D5404261EB0E
:1004A00041014FF4806404F132045FEA915C3FF44F
:1004B000D8AE4FF003025FEADC0C18BF03325FEAEC
:1004C000DC0C18BF033202EBDC02C2F1200300FA9D
:1004D00003FC20FA02F001FA03FE40EA0E0021FAC2
:1004E00002F11444BDE600BF70B54FF0FF0C4CF4B0
:1004F000E06C1CEA11541DBF1CEA135594EA0C0F62
:1005000095EA0C0F00F0DEF82C4481EA030621EA9C
:100510004C5123EA4C5350EA013518BF52EA0335D7
:1005200041F4801143F4801338D0A0FB02CE4FF089
:100530000005E1FB02E506F00042E0FB03E54FF0B9
:100540000006E1FB03569CF0000F18BF4EF0010EB1
:10055000A4F1FF04B6F5007F64F5407404D25FEAAD
:100560004E0E6D4146EB060642EAC62141EA555160
:100570004FEAC52040EA5E504FEACE2EB4F1FD0CA2
:1005800088BFBCF5E06F1ED8BEF1004F08BF5FEA20
:10059000500E50F1000041EB045170BD06F00046D2
:1005A00046EA010140EA020081EA0301B4EB5C047F
:1005B000C2BFD4EB0C0541EA045170BD41F4801177
:1005C0004FF0000E013C00F3AB8014F1360FDEBF9C
:1005D000002001F0004170BDC4F10004203C35DA78
:1005E0000C341BDC04F11404C4F1200500FA05F3FB
:1005F00020FA04F001FA05F240EA020001F000429C
:1006000021F0004110EBD37021FA04F642EB060111
:100610005EEA430E08BF20EAD37070BDC4F10C043B
:10062000C4F1200500FA04F320FA05F001FA04F2FF
:1006300040EA020001F0004110EBD37041F10001EB
:100640005EEA430E08BF20EAD37070BDC4F12005F6
:1006500000FA05F24EEA020E20FA04F301FA05F25E
:1006600043EA020321FA04F001F0004121FA04F206
:1006700020EA020000EBD3705EEA430E08BF20EAD6
:10068000D37070BD94F0000F0FD101F00046400010
:1006900041EB010111F4801F08BF013CF7D041EA92
:1006A000060195F0000F18BF704703F00046520096
:1006B00043EB030313F4801F08BF013DF7D043EA67
:1006C0000603704794EA0C0F0CEA135518BF95EA1D
:1006D0000C0F0CD050EA410618BF52EA4306D1D1A4
:1006E00081EA030101F000414FF0000070BD50EAC3
:1006F000410606BF1046194652EA430619D094EA4D
:100700000C0F02D150EA013613D195EA0C0F05D136
:1007100052EA03361CBF104619460AD181EA03018A
:1007200001F0004141F0FE4141F470014FF0000042
:1007300070BD41F0FE4141F4780170BD70B54FF0DD
:10074000FF0C4CF4E06C1CEA11541DBF1CEA13555D
:1007500094EA0C0F95EA0C0F00F0A7F8A4EB05043F
:1007600081EA030E52EA03354FEA013100F0888036
:100770004FEA03334FF0805545EA131343EA1263FF
:100780004FEA022245EA111545EA10654FEA0026B4
:100790000EF000419D4208BF964244F1FD0404F56D
:1007A000407402D25B084FEA3202B61A65EB0305C9
:1007B0005B084FEA32024FF480104FF4002CB6EB86
:1007C000020E75EB030E22BFB61A754640EA0C0006
:1007D0005B084FEA3202B6EB020E75EB030E22BF46
:1007E000B61A754640EA5C005B084FEA3202B6EB87
:1007F000020E75EB030E22BFB61A754640EA9C0046
:100800005B084FEA3202B6EB020E75EB030E22BF15
:10081000B61A754640EADC0055EA060E18D04FEAD3
:10082000051545EA16754FEA06164FEAC30343EA73
:1008300052734FEAC2025FEA1C1CC0D111F4801F40
:100840000BD141EA00014FF000004FF0004CB6E739
:1008500011F4801F04BF01430020B4F1FD0C88BFD8
:10086000BCF5E06F3FF6AFAEB5EB030C04BFB6EBE3
:10087000020C5FEA500C50F1000041EB045170BDD6
:100880000EF0004E4EEA113114EB5C04C2BFD4EB03
:100890000C0541EA045170BD41F480114FF0000E87
:1008A000013C90E645EA060E8DE60CEA135594EA03
:1008B0000C0F08BF95EA0C0F3FF43BAF94EA0C0F06
:1008C0000AD150EA01347FF434AF95EA0C0F7FF47B
:1008D00025AF104619462CE795EA0C0F06D152EACF
:1008E00003353FF4FDAE1046194622E750EA4106B3
:1008F00018BF52EA43067FF4C5AE50EA41047FF4C4
:100900000DAF52EA43057FF4EBAE12E74FEA410226
:10091000B2F1E04324BFB3F5001CDCF1FE5C0DD95D
:1009200001F0004C4FEAC0024CEA5070B2F1004FA7
:1009300040EB830008BF20F00100704711F0804FAA
:1009400021D113F13872BCBF01F00040704741F46F
:1009500080114FEA5252C2F11802C2F1200C10FA73
:100960000CF320FA02F018BF40F001004FEAC12357
:100970004FEAD32303FA0CFC40EA0C0023FA02F3FB
:100980004FEA4303CCE77FEA625307D150EA0133D1
:100990001EBF4FF0FE4040F44000704701F00040A1
:1009A00040F0FE4040F40000704700BF4FF0FF3CB5
:1009B00006E000BF4FF0010C02E000BF4FF0010C59
:1009C0004DF804CD4FEA40024FEA41037FEA226C22
:1009D00018BF7FEA236C11D001B052EA530C18BF44
:1009E00090EA010F58BFB2EB030088BFC81738BFA9
:1009F0006FEAE17018BF40F0010070477FEA226C97
:100A000002D15FEA402C05D17FEA236CE4D15FEA92
:100A1000412CE1D05DF8040B704700BF84460846C6
:100A20006146FFE70FB5FFF7C9FF002848BF10F187
:100A3000000F0FBD4DF808EDFFF7F4FF0CBF0120CC
:100A400000205DF808FB00BF4DF808EDFFF7EAFF56
:100A500034BF012000205DF808FB00BF4DF808ED11
:100A6000FFF7E0FF94BF012000205DF808FB00BF06
:100A70004DF808EDFFF7D2FF94BF012000205DF88C
:100A800008FB00BF4DF808EDFFF7C8FF34BF012099
:100A900000205DF808FB00BF80B590B000AF0121D9
:100AA0004B4800F039FB01214A4800F0C3F8484B9D
:100AB000BB62052387F82C30002387F82D300023F4
:100AC00087F82E30002387F8323007F128031846C4
:100AD00000F092FB3E4BFB61072387F82030012397
:100AE00087F82130002387F82230002387F824304C
:100AF00007F11C03184600F07FFB364B3B600523D3
:100B00003B710023BB7100233B7200237B720123E6
:100B1000FB7107237B713B46184600F0CBF82D484C
:100B200000F0F8F92B4800F0F5F92A4800F0CFFA68
:100B3000284800F009FA274800F015FA0346FB8719
:100B4000FB8F1846FFF766FC1DA3D3E90023FFF7D0
:100B5000CBFC02460B46104619464FF000021E4BD6
:100B6000FFF7ECFD02460B4610461946FFF7CEFE96
:100B70000346BB63B86BFFF75FFC13A3D3E9002305
:100B8000FFF7DCFD02460B4610461946FFF7BEFE96
:100B900003467B631149786BFFF774FF0346002B14
:100BA00005D0012207210A4800F05AFCBDE70022C7
:100BB0000721074800F054FCB7E700BFAFF30080FF
:100BC0006666666666660A407B14AE47E17A843FD5
:100BD00000080140002401400000B0400000204215
:100BE0000D488546AFF300800C480D490D4A00239F
:100BF00002E0D458C4500433C4188C42F9D30A4AD2
:100C00000A4C002301E013600432A242FBD300F03F
:100C10004BFCFFF741FFFEE70050002000000020E2
:100C20000000002010150008000000201C0000201B
:100C3000FEE7000080B483B000AF78600B46FB7025
:100C4000FB78012B15D17B68174A934206D1174BCD
:100C50009B69164A43F4007393611FE07B68144A52
:100C600093421BD1114B9B69104A43F480639361FB
:100C700014E07B680C4A934206D10C4B9B690B4AEB
:100C800023F40073936109E07B68094A934205D11C
:100C9000064B9B69054A23F48063936100BF0C37C0
:100CA000BD4680BC704700BF0024014000100240D8
:100CB0000028014080B584B000AF78607B681B6875
:100CC00001211846FFF7B6FF914B5B68904A23F469
:100CD000404353608E4B5A687B68DB799B038C4999
:100CE00013434B607B681A687B681B7A1946104671
:100CF00000F05BF97B685B7A002B08D07B681B688F
:100D00009A687B681B6842F400629A6007E07B681F
:100D10001B689A687B681B6822F400629A607B6893
:100D20001B689A687B681B6822F480129A607B6853
:100D30005B79BB737B681B7A002B60D17B681B7966
:100D4000FB72FB7A092B1FD87B681B681969FA7A3A
:100D500013465B001344072202FA03F3DB431A46EF
:100D60007B681B680A401A617B681B681969B87B3D
:100D7000FA7A13465B00134400FA03F31A467B68C1
:100D80001B680A431A6121E0FB7A0A3BBB727B684D
:100D90001B68D968BA7A13465B001344072202FA2B
:100DA00003F3DB431A467B681B680A40DA607B6802
:100DB0001B68D968B87BBA7A13465B00134400FA03
:100DC00003F31A467B681B680A43DA607B681B687A
:100DD000DA6A7B681B6822F47002DA627B681B683F
:100DE0005A6B7B681B6822F01F025A637B681B6882
:100DF000596BFA7A7B681B680A435A636EE07B681A
:100E00001B68DB6A7A6812681B0D1B05D3627B685E
:100E10001B6800221A637B681B6800225A637B6888
:100E200018687B6803F10B017B689B7A1A4600F017
:100E3000D7F80023FB734CE0FB7B7A681344DB7A22
:100E40007B737B7B092B1FD87B681B6819697A7BB6
:100E500013465B001344072202FA03F3DB431A46EE
:100E60007B681B680A401A617B681B681969B87B3C
:100E70007A7B13465B00134400FA03F31A467B683F
:100E80001B680A431A6121E07B7B0A3B3B737B684A
:100E90001B68D9683A7B13465B001344072202FAA9
:100EA00003F3DB431A467B681B680A40DA607B6801
:100EB0001B68D968B87B3A7B13465B00134400FA81
:100EC00003F31A467B681B680A43DA60FB7B013335
:100ED000FB737B689B7AFA7B9A42ADD37B689B79E4
:100EE000002B08D07B681B689A687B681B6842F0FF
:100EF00002029A6007E07B681B689A687B681B683F
:100F000022F002029A6000BF1037BD4680BD00BFCC
:100F10000010024080B485B000AF78607B689B68A9
:100F200043F001027B689A600023FB6002E0FB68EB
:100F30000133FB60FB68B3F57A7FF8DB00BF00BFCD
:100F40001437BD4680BC704780B483B000AF786072
:100F50007B689B6843F480027B689A6000BF0C3713
:100F6000BD4680BC704780B485B000AF78604CF25D
:100F70005033FB6002E0FB68013BFB607B681B6851
:100F800003F00203002B02D1FB68002BF3D17B6836
:100F90001B6823F002027B681A607B68DB6C9BB2E3
:100FA00018461437BD4680BC704780B483B000AF8C
:100FB00078600B46FB70FB78002B06D07B685B6883
:100FC00043F480727B685A6005E07B685B6823F4B9
:100FD00080727B685A6000BF0C37BD4680BC70478A
:100FE00080B487B000AFF860B9601346FB71FB793D
:100FF000002B67D0FB79102B64D8FB68DB6A23F4E5
:101000007002FB68DA62FB68DB6AFA79013A120562
:101010001A43FB68DA62FB68DB6A23F47F6323F020
:101020000F03FA68D362FB6800221A63FB68002290
:101030005A630023FB7540E0FB7D052B11D8FB684C
:10104000596BFB7DBA6813441B781846FA7D13462A
:101050009B00134400FA03F341EA0302FB685A635E
:1010600028E0FB7D0B2B12D8FB68196BFB7DBA685F
:1010700013441B781846FB7D9A1F13469B001344AC
:1010800000FA03F341EA0302FB681A6312E0FB680B
:10109000D96AFB7DBA6813441B781846FB7DA3F11F
:1010A0000C0213469B00134400FA03F341EA0302C7
:1010B000FB68DA62FB7D0133FB75FA7DFB799A42AE
:1010C000BAD300E000BF1C37BD4680BC704780B477
:1010D00083B000AF78607B689B6843F008027B6850
:1010E0009A6000BF7B689B6803F00803002BF9D16E
:1010F0007B689B6843F004027B689A6000BF7B6852
:101100009B6803F00403002BF9D100BF00BF0C372C
:10111000BD4680BC7047000080B483B000AF7860EB
:101120000B46FB70FB78012B2BD17B682D4A934239
:1011300006D12D4B9B692C4A43F0040393614BE08D
:101140007B682A4A934206D1274B9B69264A43F083
:101150000803936140E07B68254A934206D1224B05
:101160009B69214A43F01003936135E07B68214A73
:10117000934231D11C4B9B691B4A43F0200393617E
:101180002AE07B68174A934206D1174B9B69164A9F
:1011900023F0040393611FE07B68144A934206D155
:1011A000114B9B69104A23F00803936114E07B689C
:1011B0000F4A934206D10C4B9B690B4A23F0100354
:1011C000936109E07B680B4A934205D1064B9B690A
:1011D000054A23F02003936100BF0C37BD4680BC55
:1011E000704700BF0008014000100240000C0140A1
:1011F000001001400014014080B489B000AF786055
:101200007B681B79FB6100233B61FB69072B03D8DB
:101210007B681B68BB6106E07B681B680433BB61AD
:10122000FB69083BFB61BB691B68FA6992000F21EF
:1012300001FA02F2D2431A40BB691A607B685B79FB
:10124000FB730023FB757B689B7A012B40F08F803A
:101250007C4B9B697B4A43F0010393617B681B795C
:101260009B08BB737B681B7903F00303DBB29B0015
:101270007B73754ABB7B023352F823207B7B0F21A3
:1012800001FA03F3DB4318466F49BB7B024002338C
:1012900041F823206C4ABB7B023352F823207B6841
:1012A0001B686A498B4216D07B681B6868498B4271
:1012B0000FD07B681B6867498B4208D07B681B682E
:1012C00065498B4201D1032306E0002304E0022399
:1012D00002E0012300E00023797B8B4018465A4945
:1012E000BB7B0243023341F823205C4B1B687A68C6
:1012F0001279114601228A401146584A0B43136065
:101300007B68DB7A012B17D1544BDB687A68127942
:10131000114601228A401146504A0B43D3604F4B7D
:101320009B687A681279114601228A40D24311469D
:101330004A4A0B4093601AE07B68DB7A002B16D197
:10134000464B9B687A681279114601228A40114601
:10135000424A0B439360414BDB687A68127911462D
:1013600001228A40D24311463C4A0B40D360FB7BAA
:10137000002B14D17B689B79002B02D10023FB75D5
:101380001EE07B689B79012B02D10123FB7517E0DE
:101390007B689B79022B13D10223FB7510E07B68DD
:1013A0005B7A002B03D07B685B7AFB7508E07B6877
:1013B0001B7A012B02D10123FB7501E00023FB7591
:1013C000FB7D9A00FB7B03F003031A43FB699B0040
:1013D00002FA03F33B61BB691A683B691A43BB69B4
:1013E0001A60FB7B002B27D17B689B79022B23D1D2
:1013F0007B68DB79012B0DD17B681B68DA687B6821
:101400001B79194601238B4019467B681B680A43E8
:10141000DA6011E07B68DB79022B0DD17B681B68F9
:10142000DA687B681B79194601238B40DB43194638
:101430007B681B680A40DA6000BF2437BD4680BC69
:10144000704700BF0010024000000140000801404A
:10145000000C014000100140001401400004014054
:1014600080B483B000AF78600B46FB701346BB704E
:10147000BB78012B09D17B68DB68FA78012101FA7E
:1014800002F21A437B68DA6009E07B68DB68FA786D
:10149000012101FA02F2D2431A407B68DA6000BFF0
:1014A0000C37BD4680BC704770B500260C4D0D4C06
:1014B000641BA410A64209D100F01AF800260A4DB8
:1014C0000A4C641BA410A64205D170BD55F8043B1C
:1014D00098470136EEE755F8043B98470136F2E7A6
:1014E0000815000808150008081500080C15000864
:1014F000F8B500BFF8BC08BC9E467047F8B500BF01
:08150000F8BC08BC9E467047D0
:041508005501000881
:04150C0031010008A1
:0400000508000BE103
:00000001FF
